{
  "contractName": "LogicV1",
  "abi": [
    {
      "anonymous": false,
      "inputs": [
        {
          "indexed": false,
          "internalType": "uint8",
          "name": "version",
          "type": "uint8"
        }
      ],
      "name": "Initialized",
      "type": "event"
    },
    {
      "inputs": [],
      "name": "value",
      "outputs": [
        {
          "internalType": "uint256",
          "name": "",
          "type": "uint256"
        }
      ],
      "stateMutability": "view",
      "type": "function"
    },
    {
      "inputs": [
        {
          "internalType": "uint256",
          "name": "_value",
          "type": "uint256"
        }
      ],
      "name": "initialize",
      "outputs": [],
      "stateMutability": "nonpayable",
      "type": "function"
    },
    {
      "inputs": [
        {
          "internalType": "uint256",
          "name": "_value",
          "type": "uint256"
        },
        {
          "internalType": "uint256",
          "name": "num",
          "type": "uint256"
        }
      ],
      "name": "setValue",
      "outputs": [
        {
          "internalType": "uint256",
          "name": "",
          "type": "uint256"
        }
      ],
      "stateMutability": "nonpayable",
      "type": "function"
    },
    {
      "inputs": [
        {
          "internalType": "uint256",
          "name": "seed",
          "type": "uint256"
        }
      ],
      "name": "getRandomNumber",
      "outputs": [
        {
          "internalType": "uint256",
          "name": "",
          "type": "uint256"
        }
      ],
      "stateMutability": "view",
      "type": "function"
    }
  ],
  "bytecode": "0x608060405234801561001057600080fd5b50610590806100206000396000f3fe608060405234801561001057600080fd5b506004361061004c5760003560e01c80633fa4f245146100515780637b8d56e31461006f578063b37217a41461009f578063fe4b84df146100cf575b600080fd5b6100596100eb565b60405161006691906102bf565b60405180910390f35b6100896004803603810190610084919061030b565b6100f1565b60405161009691906102bf565b60405180910390f35b6100b960048036038101906100b4919061034b565b610110565b6040516100c691906102bf565b60405180910390f35b6100e960048036038101906100e4919061034b565b610145565b005b60015481565b600081836100ff91906103a7565b600181905550600154905092915050565b6000428260405160200161012592919061041e565b6040516020818303038152906040528051906020012060001c9050919050565b60008060019054906101000a900460ff161590508080156101765750600160008054906101000a900460ff1660ff16105b806101a3575061018530610283565b1580156101a25750600160008054906101000a900460ff1660ff16145b5b6101e2576040517f08c379a00000000000000000000000000000000000000000000000000000000081526004016101d9906104cd565b60405180910390fd5b60016000806101000a81548160ff021916908360ff160217905550801561021f576001600060016101000a81548160ff0219169083151502179055505b81600181905550801561027f5760008060016101000a81548160ff0219169083151502179055507f7f26b83ff96e1f2b6a682f133852f6798a09c465da95921460cefb38474024986001604051610276919061053f565b60405180910390a15b5050565b6000808273ffffffffffffffffffffffffffffffffffffffff163b119050919050565b6000819050919050565b6102b9816102a6565b82525050565b60006020820190506102d460008301846102b0565b92915050565b600080fd5b6102e8816102a6565b81146102f357600080fd5b50565b600081359050610305816102df565b92915050565b60008060408385031215610322576103216102da565b5b6000610330858286016102f6565b9250506020610341858286016102f6565b9150509250929050565b600060208284031215610361576103606102da565b5b600061036f848285016102f6565b91505092915050565b7f4e487b7100000000000000000000000000000000000000000000000000000000600052601160045260246000fd5b60006103b2826102a6565b91506103bd836102a6565b9250827fffffffffffffffffffffffffffffffffffffffffffffffffffffffffffffffff038211156103f2576103f1610378565b5b828201905092915050565b6000819050919050565b610418610413826102a6565b6103fd565b82525050565b600061042a8285610407565b60208201915061043a8284610407565b6020820191508190509392505050565b600082825260208201905092915050565b7f496e697469616c697a61626c653a20636f6e747261637420697320616c72656160008201527f647920696e697469616c697a6564000000000000000000000000000000000000602082015250565b60006104b7602e8361044a565b91506104c28261045b565b604082019050919050565b600060208201905081810360008301526104e6816104aa565b9050919050565b6000819050919050565b600060ff82169050919050565b6000819050919050565b600061052961052461051f846104ed565b610504565b6104f7565b9050919050565b6105398161050e565b82525050565b60006020820190506105546000830184610530565b9291505056fea2646970667358221220ec5d4ef7385db8f7d4f13a3150417ee5389dd389f54f38ff07646a519a9bc01664736f6c634300080a0033",
  "immutableReferences": {},
  "source": "// SPDX-License-Identifier: MIT\npragma solidity ^0.8.10;\n\nimport \"@openzeppelin/contracts-upgradeable/proxy/utils/Initializable.sol\";\nimport \"./interfaces/ILogic.sol\";\n\ncontract LogicV1 is Initializable, ILogic {\n    uint256 public value;\n\n    function initialize(uint256 _value) public override initializer {\n        value = _value;\n    }\n\n    function setValue(uint256 _value, uint256 num) public override returns (uint256) {\n        value = _value + num;\n        return value;\n    }\n\n    function getRandomNumber(uint256 seed) public view override returns (uint256) {\n        return uint256(keccak256(abi.encodePacked(block.timestamp, seed)));\n    }\n}",
  "sourcePath": "/workspace/UpgradableTruffle/backend/contracts/LogicV1.sol",
  "compiler": {
    "name": "solc",
    "version": "0.8.10+commit.fc410830.Emscripten.clang"
  },
  "schemaVersion": "3.4.13",
  "updatedAt": "2023-04-05T09:37:07.717Z",
  "devdoc": {
    "kind": "dev",
    "methods": {},
    "version": 1
  },
  "userdoc": {
    "kind": "user",
    "methods": {},
    "version": 1
  }
}