{
  "contractName": "LogicV2",
  "abi": [
    {
      "anonymous": false,
      "inputs": [
        {
          "indexed": false,
          "internalType": "uint8",
          "name": "version",
          "type": "uint8"
        }
      ],
      "name": "Initialized",
      "type": "event"
    },
    {
      "inputs": [],
      "name": "value",
      "outputs": [
        {
          "internalType": "uint256",
          "name": "",
          "type": "uint256"
        }
      ],
      "stateMutability": "view",
      "type": "function"
    },
    {
      "inputs": [
        {
          "internalType": "uint256",
          "name": "_value",
          "type": "uint256"
        }
      ],
      "name": "initialize",
      "outputs": [],
      "stateMutability": "nonpayable",
      "type": "function"
    },
    {
      "inputs": [
        {
          "internalType": "uint256",
          "name": "_value",
          "type": "uint256"
        },
        {
          "internalType": "uint256",
          "name": "num",
          "type": "uint256"
        }
      ],
      "name": "setValue",
      "outputs": [
        {
          "internalType": "uint256",
          "name": "",
          "type": "uint256"
        }
      ],
      "stateMutability": "nonpayable",
      "type": "function"
    },
    {
      "inputs": [
        {
          "internalType": "uint256",
          "name": "blockNumber",
          "type": "uint256"
        }
      ],
      "name": "getRandomNumber",
      "outputs": [
        {
          "internalType": "uint256",
          "name": "",
          "type": "uint256"
        }
      ],
      "stateMutability": "view",
      "type": "function"
    }
  ],
  "bytecode": "0x608060405234801561001057600080fd5b506106c3806100206000396000f3fe608060405234801561001057600080fd5b506004361061004c5760003560e01c80633fa4f245146100515780637b8d56e31461006f578063b37217a41461009f578063fe4b84df146100cf575b600080fd5b6100596100eb565b604051610066919061030d565b60405180910390f35b61008960048036038101906100849190610359565b6100f1565b604051610096919061030d565b60405180910390f35b6100b960048036038101906100b49190610399565b61011c565b6040516100c6919061030d565b60405180910390f35b6100e960048036038101906100e49190610399565b610193565b005b60015481565b60008183600261010191906103f5565b61010b919061044f565b600181905550600154905092915050565b600060ff8210610161576040517f08c379a000000000000000000000000000000000000000000000000000000000815260040161015890610528565b60405180910390fd5b81406040516020016101739190610573565b6040516020818303038152906040528051906020012060001c9050919050565b60008060019054906101000a900460ff161590508080156101c45750600160008054906101000a900460ff1660ff16105b806101f157506101d3306102d1565b1580156101f05750600160008054906101000a900460ff1660ff16145b5b610230576040517f08c379a000000000000000000000000000000000000000000000000000000000815260040161022790610600565b60405180910390fd5b60016000806101000a81548160ff021916908360ff160217905550801561026d576001600060016101000a81548160ff0219169083151502179055505b8160018190555080156102cd5760008060016101000a81548160ff0219169083151502179055507f7f26b83ff96e1f2b6a682f133852f6798a09c465da95921460cefb384740249860016040516102c49190610672565b60405180910390a15b5050565b6000808273ffffffffffffffffffffffffffffffffffffffff163b119050919050565b6000819050919050565b610307816102f4565b82525050565b600060208201905061032260008301846102fe565b92915050565b600080fd5b610336816102f4565b811461034157600080fd5b50565b6000813590506103538161032d565b92915050565b600080604083850312156103705761036f610328565b5b600061037e85828601610344565b925050602061038f85828601610344565b9150509250929050565b6000602082840312156103af576103ae610328565b5b60006103bd84828501610344565b91505092915050565b7f4e487b7100000000000000000000000000000000000000000000000000000000600052601160045260246000fd5b6000610400826102f4565b915061040b836102f4565b9250817fffffffffffffffffffffffffffffffffffffffffffffffffffffffffffffffff0483118215151615610444576104436103c6565b5b828202905092915050565b600061045a826102f4565b9150610465836102f4565b9250827fffffffffffffffffffffffffffffffffffffffffffffffffffffffffffffffff0382111561049a576104996103c6565b5b828201905092915050565b600082825260208201905092915050565b7f626c6f636b68617368206f6e6c7920776f726b7320666f7220323536206d6f7360008201527f7420726563656e74000000000000000000000000000000000000000000000000602082015250565b60006105126028836104a5565b915061051d826104b6565b604082019050919050565b6000602082019050818103600083015261054181610505565b9050919050565b6000819050919050565b6000819050919050565b61056d61056882610548565b610552565b82525050565b600061057f828461055c565b60208201915081905092915050565b7f496e697469616c697a61626c653a20636f6e747261637420697320616c72656160008201527f647920696e697469616c697a6564000000000000000000000000000000000000602082015250565b60006105ea602e836104a5565b91506105f58261058e565b604082019050919050565b60006020820190508181036000830152610619816105dd565b9050919050565b6000819050919050565b600060ff82169050919050565b6000819050919050565b600061065c61065761065284610620565b610637565b61062a565b9050919050565b61066c81610641565b82525050565b60006020820190506106876000830184610663565b9291505056fea2646970667358221220809e508af669a87f7825dc4b76af7f88b312a1840731e01adf7e9d4f5f7399d264736f6c634300080a0033",
  "immutableReferences": {},
  "source": "// SPDX-License-Identifier: MIT\npragma solidity ^0.8.10;\n\nimport \"@openzeppelin/contracts-upgradeable/proxy/utils/Initializable.sol\";\n\nimport \"./interfaces/ILogic.sol\";\n\ncontract LogicV2 is Initializable, ILogic {\n    uint256 public value;\n\n    function initialize(uint256 _value) public override initializer {\n        value = _value;\n    }\n\n    function setValue(uint256 _value, uint256 num) public override returns (uint256) {\n        value = 2 * _value + num;\n        return value;\n    }\n\n    function getRandomNumber(uint256 blockNumber) public view override returns (uint256) {\n        require(blockNumber < 255, \"blockhash only works for 256 most recent\");\n        return uint256(keccak256(abi.encodePacked(blockhash(blockNumber))));\n    }\n}",
  "sourcePath": "/workspace/UpgradableTruffle/backend/contracts/LogicV2.sol",
  "compiler": {
    "name": "solc",
    "version": "0.8.10+commit.fc410830.Emscripten.clang"
  },
  "schemaVersion": "3.4.13",
  "updatedAt": "2023-04-05T09:37:07.718Z",
  "devdoc": {
    "kind": "dev",
    "methods": {},
    "version": 1
  },
  "userdoc": {
    "kind": "user",
    "methods": {},
    "version": 1
  }
}